{
  "contractName": "Voter",
  "abi": [
    {
      "constant": true,
      "inputs": [
        {
          "name": "",
          "type": "uint256"
        }
      ],
      "name": "options",
      "outputs": [
        {
          "name": "",
          "type": "string"
        }
      ],
      "payable": false,
      "stateMutability": "view",
      "type": "function"
    },
    {
      "constant": true,
      "inputs": [
        {
          "name": "",
          "type": "uint256"
        }
      ],
      "name": "votes",
      "outputs": [
        {
          "name": "",
          "type": "uint256"
        }
      ],
      "payable": false,
      "stateMutability": "view",
      "type": "function"
    },
    {
      "constant": false,
      "inputs": [
        {
          "name": "option",
          "type": "string"
        }
      ],
      "name": "addOption",
      "outputs": [],
      "payable": false,
      "stateMutability": "nonpayable",
      "type": "function"
    },
    {
      "constant": false,
      "inputs": [],
      "name": "startVoting",
      "outputs": [],
      "payable": false,
      "stateMutability": "nonpayable",
      "type": "function"
    },
    {
      "constant": false,
      "inputs": [
        {
          "name": "option",
          "type": "uint256"
        }
      ],
      "name": "vote",
      "outputs": [],
      "payable": false,
      "stateMutability": "nonpayable",
      "type": "function"
    },
    {
      "constant": false,
      "inputs": [
        {
          "name": "option",
          "type": "string"
        }
      ],
      "name": "vote",
      "outputs": [],
      "payable": false,
      "stateMutability": "nonpayable",
      "type": "function"
    },
    {
      "constant": true,
      "inputs": [],
      "name": "getVotes",
      "outputs": [
        {
          "name": "",
          "type": "uint256[]"
        }
      ],
      "payable": false,
      "stateMutability": "view",
      "type": "function"
    }
  ],
  "bytecode": "0x608060405234801561001057600080fd5b50610c15806100206000396000f300608060405260043610610083576000357c0100000000000000000000000000000000000000000000000000000000900463ffffffff1680630121b93f146100885780630dc96015146100b55780631ec6b60a14610121578063409e2205146101385780635df81330146101de578063edc550dc1461021f578063fc36e15b14610288575b600080fd5b34801561009457600080fd5b506100b3600480360381019080803590602001909291905050506102f1565b005b3480156100c157600080fd5b506100ca6104d0565b6040518080602001828103825283818151815260200191508051906020019060200280838360005b8381101561010d5780820151818401526020810190506100f2565b505050509050019250505060405180910390f35b34801561012d57600080fd5b50610136610528565b005b34801561014457600080fd5b50610163600480360381019080803590602001909291905050506106da565b6040518080602001828103825283818151815260200191508051906020019080838360005b838110156101a3578082015181840152602081019050610188565b50505050905090810190601f1680156101d05780820380516001836020036101000a031916815260200191505b509250505060405180910390f35b3480156101ea57600080fd5b5061020960048036038101908080359060200190929190505050610795565b6040518082815260200191505060405180910390f35b34801561022b57600080fd5b50610286600480360381019080803590602001908201803590602001908080601f01602080910402602001604051908101604052809392919081815260200183838082843782019150505050505091929192905050506107b8565b005b34801561029457600080fd5b506102ef600480360381019080803590602001908201803590602001908080601f016020809104026020016040519081016040528093929190818152602001838380828437820191505050505050919291929050505061087f565b005b80600011158015610306575060038054905081105b151561037a576040517f08c379a000000000000000000000000000000000000000000000000000000000815260040180806020018281038252600e8152602001807f496e76616c6964206f7074696f6e00000000000000000000000000000000000081525060200191505060405180910390fd5b600160003373ffffffffffffffffffffffffffffffffffffffff1673ffffffffffffffffffffffffffffffffffffffff16815260200190815260200160002060009054906101000a900460ff1615151561043c576040517f08c379a00000000000000000000000000000000000000000000000000000000081526004018080602001828103825260198152602001807f4163636f756e742068617320616c726561647920766f7465640000000000000081525060200191505060405180910390fd5b60018060003373ffffffffffffffffffffffffffffffffffffffff1673ffffffffffffffffffffffffffffffffffffffff16815260200190815260200160002060006101000a81548160ff02191690831515021790555060016000828154811015156104a457fe5b9060005260206000200154016000828154811015156104bf57fe5b906000526020600020018190555050565b6060600080548060200260200160405190810160405280929190818152602001828054801561051e57602002820191906000526020600020905b81548152602001906001019080831161050a575b5050505050905090565b6000610532610afc565b600460009054906101000a900460ff161515156105b7576040517f08c379a000000000000000000000000000000000000000000000000000000000815260040180806020018281038252601a8152602001807f566f74696e672068617320616c7265616479207374617274656400000000000081525060200191505060405180910390fd5b6003805490506000816105ca9190610b18565b50600091505b6003805490508210156106bb57604080519081016040528083815260200160011515815250905080600260038481548110151561060957fe5b90600052602060002001604051808280546001816001161561010002031660029004801561066e5780601f1061064c57610100808354040283529182019161066e565b820191906000526020600020905b81548152906001019060200180831161065a575b505091505090815260200160405180910390206000820151816000015560208201518160010160006101000a81548160ff02191690831515021790555090505081806001019250506105d0565b6001600460006101000a81548160ff0219169083151502179055505050565b6003818154811015156106e957fe5b906000526020600020016000915090508054600181600116156101000203166002900480601f01602080910402602001604051908101604052809291908181526020018280546001816001161561010002031660029004801561078d5780601f106107625761010080835404028352916020019161078d565b820191906000526020600020905b81548152906001019060200180831161077057829003601f168201915b505050505081565b6000818154811015156107a457fe5b906000526020600020016000915090505481565b600460009054906101000a900460ff1615151561083d576040517f08c379a000000000000000000000000000000000000000000000000000000000815260040180806020018281038252601a8152602001807f566f74696e672068617320616c7265616479207374617274656400000000000081525060200191505060405180910390fd5b600381908060018154018082558091505090600182039060005260206000200160009091929091909150908051906020019061087a929190610b44565b505050565b610887610afc565b600160003373ffffffffffffffffffffffffffffffffffffffff1673ffffffffffffffffffffffffffffffffffffffff16815260200190815260200160002060009054906101000a900460ff16151515610949576040517f08c379a00000000000000000000000000000000000000000000000000000000081526004018080602001828103825260198152602001807f4163636f756e742068617320616c726561647920766f7465640000000000000081525060200191505060405180910390fd5b6002826040518082805190602001908083835b602083101515610981578051825260208201915060208101905060208303925061095c565b6001836020036101000a0380198251168184511680821785525050505050509050019150509081526020016040518091039020604080519081016040529081600082015481526020016001820160009054906101000a900460ff161515151581525050905080602001511515610a5f576040517f08c379a00000000000000000000000000000000000000000000000000000000081526004018080602001828103825260158152602001807f4f7074696f6e20646f6573206e6f74206578697374000000000000000000000081525060200191505060405180910390fd5b60018060003373ffffffffffffffffffffffffffffffffffffffff1673ffffffffffffffffffffffffffffffffffffffff16815260200190815260200160002060006101000a81548160ff021916908315150217905550600160008260000151815481101515610acb57fe5b90600052602060002001540160008260000151815481101515610aea57fe5b90600052602060002001819055505050565b6040805190810160405280600081526020016000151581525090565b815481835581811115610b3f57818360005260206000209182019101610b3e9190610bc4565b5b505050565b828054600181600116156101000203166002900490600052602060002090601f016020900481019282601f10610b8557805160ff1916838001178555610bb3565b82800160010185558215610bb3579182015b82811115610bb2578251825591602001919060010190610b97565b5b509050610bc09190610bc4565b5090565b610be691905b80821115610be2576000816000905550600101610bca565b5090565b905600a165627a7a72305820f56ab2291e4071bb7e50a91d4cd6ca21516e9ea8cec2d2f28746ad44cd5f92790029",
  "source": "pragma solidity ^0.4.0;\n\ncontract Voter {\n\n    struct OptionPos {\n        uint pos;\n        bool exists;\n    }\n\n    uint[] public votes;\n    mapping (address => bool) hasVoted;\n    mapping (string => OptionPos) posOfOption;\n    string[] public options;\n    bool votingStarted;\n\n    function addOption(string memory option) public {\n        require(!votingStarted, \"Voting has already started\");\n        options.push(option);\n    }\n\n    function startVoting() public {\n        require(!votingStarted, \"Voting has already started\");\n        votes.length = options.length;\n\n        for (uint i = 0; i < options.length; i++) {\n            OptionPos memory option = OptionPos(i, true);\n            posOfOption[options[i]] = option;\n        }\n        votingStarted = true;\n    }\n\n    function vote(uint option) public {\n        require(0 <= option && option < options.length, \"Invalid option\");\n        require(!hasVoted[msg.sender], \"Account has already voted\");\n\n        hasVoted[msg.sender] = true;\n        votes[option] = votes[option] + 1;\n    }\n\n    function vote(string memory option) public {\n        require(!hasVoted[msg.sender], \"Account has already voted\");\n        OptionPos memory optionPos = posOfOption[option];\n        require(optionPos.exists, \"Option does not exist\");\n\n        hasVoted[msg.sender] = true;\n        votes[optionPos.pos] = votes[optionPos.pos] + 1;\n    }\n\n    function getVotes() public view returns (uint[] memory) {\n        return votes;\n    }\n}",
  "sourcePath": "C:/Users/helper/Documents/projet/truffle_project/contracts/Voter.sol",
  "compiler": {
    "name": "solc",
    "version": "0.4.25+commit.59dbf8f1.Emscripten.clang"
  },
  "schemaVersion": "3.3.2",
  "updatedAt": "2020-12-13T10:23:18.017Z",
  "networkType": "ethereum",
  "devdoc": {
    "methods": {}
  },
  "userdoc": {
    "methods": {}
  }
}